:100000000C942A000C9497010C9434000C94340046
:100010000C9434000C9434000C9434000C94340090
:100020000C9434000C9434000C9434000C94340080
:100030000C9434000C9434000C9434000C94340070
:100040000C9434000C9434000C9434000C94340060
:100050000C94340011241FBECFE5D8E0DEBFCDBF25
:100060000E94CC010C94E0010C9400008FB78068D2
:100070008FBF08958FB78F778FBF089585B7826040
:1000800085BF85B78E7F85BF8BB780648BBF089592
:1000900085B7886085BF85B78B7F85BF8BB7806844
:1000A0008BBF089584B78F7B84BF8BB780628BBF73
:1000B00008954423D1F58130A1F0813030F08230B1
:1000C000E1F0833009F067C024C02AB381E090E0FA
:1000D00002C0880F991F6A95E2F7809582238ABB38
:1000E000089527B381E090E002C0880F991F6A95B8
:1000F000E2F78095822387BB089524B381E090E0E6
:1001000002C0880F991F6A95E2F78095822384BB0D
:10011000089521B381E090E002C0880F991F6A958D
:10012000E2F78095822381BB08954130A1F58130AB
:1001300091F0813028F08230C9F0833061F521C020
:100140002AB381E090E002C0880F991F6A95E2F718
:10015000282B2ABB089527B381E090E002C0880FC6
:10016000991F6A95E2F7282B27BB089524B381E0F5
:1001700090E002C0880F991F6A95E2F7282B24BBF4
:10018000089521B381E090E002C0880F991F6A951D
:10019000E2F7282B21BB08954130B1F5813099F069
:1001A000813030F08230D1F0833009F067C021C057
:1001B0002BB381E090E002C0880F991F6A95E2F7A7
:1001C000282B2BBB089528B381E090E002C0880F54
:1001D000991F6A95E2F7282B28BB089525B381E083
:1001E00090E002C0880F991F6A95E2F7282B25BB83
:1001F000089522B381E090E002C0880F991F6A95AC
:10020000E2F7282B22BB08954423C1F5813099F0F1
:10021000813028F08230D9F0833081F524C02BB3AF
:1002200081E090E002C0880F991F6A95E2F78095FF
:1002300082238BBB089528B381E090E002C0880F31
:10024000991F6A95E2F78095822388BB089525B3AC
:1002500081E090E002C0880F991F6A95E2F78095CF
:10026000822385BB089522B381E090E002C0880F0D
:10027000991F6A95E2F78095822382BB0895FA015F
:10028000813049F0813028F0823039F08330C1F478
:100290000EC089B303C086B301C083B390E002C02F
:1002A000959587956A95E2F781708083089580B36C
:1002B00090E002C0959587956A95E2F781708083FA
:1002C0000895813049F0813028F0823039F0833050
:1002D00041F406C06ABB089567BB089564BB0895E6
:1002E00061BB0895813049F0813028F0823039F0C7
:1002F000833041F406C06BBB089568BB089565BBAD
:10030000089562BB0895FB01813049F0813028F0E7
:10031000823039F0833051F407C089B303C086B30B
:1003200001C083B38083089580B3808308951F92B2
:100330000F920FB60F9211242F933F934F935F9319
:100340006F937F938F939F93AF93BF93EF93FF939D
:1003500080E060E041E00E94CC0088E893E128EC76
:1003600030E0F9013197F1F70197D9F780E060E0CB
:1003700040E00E94CC00FF91EF91BF91AF919F911F
:100380008F917F916F915F914F913F912F910F903E
:100390000FBE0F901F9018950E94360083E062E018
:1003A00040E00E94590083E062E041E00E94CC00FE
:1003B00080E060E041E00E9459000E943E00FFCFD3
:0403C000F894FFCFDF
:00000001FF
